:100000000C9414030C943C030C943C030C943C039C
:100010000C943C030C943C030C943C030C943C0364
:100020000C943C030C943C030C949E090C940D0A14
:100030000C943C030C943C030C943C030C943C0344
:100040000C943C030C943C030C943C030C943C0334
:100050000C943C030C943C030C943C030C943F0C18
:100060000C943C030C943C030C943C030C943C0314
:100070000C943C030C943C030C943C030C943C0304
:100080000C943C030C943C030C943C030C943C03F4
:100090000C943C030C943C030C943C030C943C03E4
:1000A0000C943C030C943C030C943C0300000000B3
:1000B000003E5B4F5B3E3E6B4F6B3E1C3E7C3E1CEE
:1000C000183C7E3C181C577D571C1C5E7F5E1C0034
:1000D000183C1800FFE7C3E7FF0018241800FFE7EB
:1000E000DBE7FF30483A060E2629792926407F05AE
:1000F0000507407F05253F5A3CE73C5A7F3E1C1CC4
:1001000008081C1C3E7F14227F22145F5F005F5F83
:1001100006097F017F006689956A6060606060946F
:10012000A2FFA29408047E040810207E2010080874
:100130002A1C08081C2A08081E101010100C1E0C7F
:100140001E0C30383E3830060E3E0E060000000011
:100150000000005F00000007000700147F147F14F8
:10016000242A7F2A1223130864623649562050003D
:1001700008070300001C2241000041221C002A1C29
:100180007F1C2A08083E0808008070300008080814
:100190000808000060600020100804023E51494534
:1001A0003E00427F400072494949462141494D3352
:1001B0001814127F1027454545393C4A49493141B9
:1001C000211109073649494936464949291E000087
:1001D00014000000403400000008142241141414DC
:1001E0001414004122140802015909063E415D59C8
:1001F0004E7C1211127C7F494949363E41414122D1
:100200007F4141413E7F494949417F090909013EFA
:10021000414151737F0808087F00417F4100204021
:10022000413F017F081422417F404040407F021C33
:10023000027F7F0408107F3E4141413E7F0909094A
:10024000063E4151215E7F09192946264949493216
:1002500003017F01033F4040403F1F2040201F3FDC
:100260004038403F63140814630304780403615961
:10027000494D43007F4141410204081020004141A3
:10028000417F04020102044040404040000307084F
:100290000020545478407F2844443838444444284B
:1002A000384444287F385454541800087E090218F2
:1002B000A4A49C787F0804047800447D400020407A
:1002C000403D007F1028440000417F40007C0478BE
:1002D00004787C080404783844444438FC18242406
:1002E0001818242418FC7C08040408485454542486
:1002F00004043F44243C4040207C1C2040201C3C03
:100300004030403C44281028444C9090907C4464F9
:10031000544C44000836410000007700000041368C
:10032000080002010204023C2623263C1EA1A16112
:10033000123A4040207A3854545559215555794144
:100340002154547841215554784020545579400C1B
:100350001E527212395555555939545454593955FC
:100360005454580000457C410002457D420001453F
:100370007C40F0292429F0F0282528F07C545545AC
:10038000002054547C547C0A097F4932494949323F
:100390003248484832324A4848303A4141217A3A54
:1003A00042402078009DA0A07D39444444393D401E
:1003B00040403D3C24FF2424487E4943662B2FFCCB
:1003C0002F2BFF0929F620C0887E09032054547979
:1003D000410000447D413048484A32384040227A4A
:1003E000007A0A0A727D0D19317D2629292F2826C7
:1003F0002929292630484D402038080808080808CF
:100400000808382F10C8ACBA2F102834FA00007B27
:10041000000008142A142222142A1408950022002D
:1004200095AA005500AAAA55AA55AA000000FF00E7
:10043000101010FF00141414FF001010FF00FF1024
:1004400010F010F0141414FC001414F700FF000056
:10045000FF00FF1414F404FC141417101F10101FD5
:10046000101F1414141F00101010F0000000001FC3
:10047000101010101F10101010F010000000FF10CE
:100480001010101010101010FF10000000FF1400CA
:1004900000FF00FF00001F10170000FC04F41414FC
:1004A0001710171414F404F40000FF00F7141414C8
:1004B00014141414F700F7141414171410101F1048
:1004C0001F141414F4141010F010F000001F101F6B
:1004D0000000001F14000000FC140000F010F010D9
:1004E00010FF10FF141414FF141010101F00000050
:1004F00000F010FFFFFFFFFFF0F0F0F0F0FFFFFF54
:100500000000000000FFFF0F0F0F0F0F38444438AA
:10051000447C2A2A3E147E02020606027E027E02E5
:1005200063554941633844443C04407E201E200604
:10053000027E020299A5E7A5991C2A492A1C4C7241
:1005400001724C304A4D4D303048784830BC625AC8
:10055000463D3E494949007E0101017E2A2A2A2A58
:100560002A44445F444440514A444040444A514034
:100570000000FF0103E080FF000008086B6B0836F5
:1005800012362436060F090F060000181800000066
:100590001010003040FF0101001F01011E00191D55
:1005A0001712003C3C3C3C0000000000D5F08D14CC
:1005B000A1C881CFD9F1AF2000080B0002020201CF
:1005C00000090400000102020000052400100105DA
:1005D0002401010104240206052406000107058107
:1005E0000310004009040100020A00000007050290
:1005F00002400000070583024000000403090412C2
:10060000010002EF02014041233680000101020394
:100610000141726475696E6F204C4C4300417264F5
:1006200075626F790000DB0C11241FBECFEFDAE09A
:10063000DEBFCDBF11E0A0E0B1E0ECE7F5E202C023
:1006400005900D92AE36B107D9F728E0AEE6B1E0DD
:1006500001C01D92A532B207E1F713E0C4E1D3E077
:1006600004C02197FE010E94B112C331D107C9F71E
:100670000E94450D0C94BC120C9400009091E7056B
:10068000982329F49091E605982381E009F480E00D
:10069000089584E00E943E03882321F01092F7071A
:1006A0001092F6070895EDE8F1E080E0A0E0B8E0F0
:1006B00000800EBC8111012C1197A0FDFDCF01928D
:1006C000B9F70DB40895FC0180918C01882311F1D4
:1006D0003FB7F89482E08093E9002091F200822FE6
:1006E00090E01816190614F481E090E0882339F0A0
:1006F000289844E640938B014091F10040832223E7
:1007000039F02091F200211103C02BE62093E8007C
:100710003FBF08958FEF9FEF08952FB7F89483E0C0
:100720008093E9009091E800892F807295FF04C0C2
:100730009091F20080E4891B2FBF0895809183017E
:1007400081110DC082E080937F0184E0809380015D
:10075000109282011092810181E0809383018FE7E2
:1007600091E00895CF93DF931F92CDB7DEB76983F1
:10077000DC01ED91FC910280F381E02D41E050E03D
:10078000BE016F5F7F4F09950F90DF91CF91089564
:1007900083E08093E9008091F200882319F08AE3D6
:1007A0008093E80008950E948D0390E00895CF9310
:1007B000DF931F92CDB7DEB7FC018485958597FD49
:1007C00008C02FEF3FEF358724870F90DF91CF913F
:1007D0000895CE0101960E946303019719F489815F
:1007E00090E0F3CF8FEF9FEFF0CF0F931F93CF9356
:1007F000DF931F92CDB7DEB78C01FC018485958510
:1008000097FF0BC0CE0101960E946303019771F41C
:10081000898190E0F80195878487F8018485958522
:100820000F90DF91CF911F910F9108958FEF9FEF60
:10083000F1CFFC018485958597FD0BC09FB7F89497
:1008400082E08093E9008091F2009FBF90E00196E2
:1008500008959FB7F89482E08093E9008091F200B8
:100860009FBF90E008954091790150917A012091C5
:1008700077013091780142175307B4F49091E80062
:100880009570E1F39091E80092FD19C08093F1001A
:100890008091790190917A0101968F739927892B24
:1008A00019F48EEF8093E8008091790190917A019C
:1008B000019690937A018093790181E0089580E018
:1008C0000895EF92FF920F931F93CF93DF93F82E2B
:1008D000192FE62E042F81E0860F880F0E94330423
:1008E00083E00E943304CF2DD12FEC0EFD2EF11C9E
:1008F000CE15DF05B9F007FF13C0FE0184910E94F9
:100900003304182F80E00E94330481232196811143
:10091000EFCFDF91CF911F910F91FF90EF9008954E
:100920008881EDCF81E0F5CFDF92EF92FF920F93B8
:100930001F93CF93DF93D82E8A01EB017B01E40E46
:10094000F51ECE15DF0559F0D7FE12C0FE018491C9
:100950000E94330421968111F4CF0FEF1FEFC801DD
:10096000DF91CF911F910F91FF90EF90DF9008954D
:100970008881EECF0F931F93CF93DF931F92CDB754
:10098000DEB782E0898342E450E069EB75E080E8FD
:100990000E9494040E949E03DC0112960D911C910A
:1009A0000115110589F0D801ED91FC910280F381C8
:1009B000E02DBE016F5F7F4FC801099597FD04C010
:1009C000F80100851185ECCF89810F90DF91CF91DF
:1009D0001F910F910895615030F02091F100FC01BA
:1009E00020830196F8CF289884E680938B010895A0
:1009F000AF92BF92CF92DF92EF92FF920F931F932D
:100A0000CF93DF936C017B018B01040F151FEB016A
:100A10005E01AE18BF08C017D10759F06991D60121
:100A2000ED91FC910190F081E02DC6010995892B93
:100A300079F7C501DF91CF911F910F91FF90EF9052
:100A4000DF90CF90BF90AF9008953FB7F89480911A
:100A50006F0190917001A0917101B091720126B562
:100A6000A89B05C02F3F19F00196A11DB11D3FBFE6
:100A7000BA2FA92F982F8827BC01CD01620F711DB5
:100A8000811D911D42E0660F771F881F991F4A95AF
:100A9000D1F708958F929F92AF92BF92CF92DF923B
:100AA000EF92FF926B017C010E9425054B015C01D6
:100AB000C114D104E104F104B9F00E9425056819BC
:100AC00079098A099B09683E73408105910580F385
:100AD00021E0C21AD108E108F10888EE880E83E00F
:100AE000981EA11CB11CE4CFFF90EF90DF90CF9037
:100AF000BF90AF909F908F9008958F929F92AF92EA
:100B0000BF92CF92DF92EF92FF920F931F93CF93FA
:100B1000DF936C017B018A0180910B01882309F42A
:100B20005CC080918C01882309F457C080917E01BC
:100B300080FF05C08091E00082608093E000E801C2
:100B4000B12C8AEFA82E93E0892E2AE3922E2097CB
:100B500011F4BB20D9F10E948D0381110AC0AA941F
:100B6000AA20D9F161E070E080E090E00E944A059F
:100B7000EECF8C171D0611F00CF08C2F9FB7F89458
:100B80008092E9002091E80025FD02C09FBFDFCFE1
:100B9000282F30E0C21BD30BF701815020F0419188
:100BA0004093F100FACFE20EF31EBB2021F09092A9
:100BB000E800B12CEBCF8091E80085FDE7CF909263
:100BC000E800BB24B394209709F3F3CF5D9884E643
:100BD00080937D01101611063CF081E090E0F60153
:100BE0009383828310E000E0C801DF91CF911F91D1
:100BF0000F91FF90EF90DF90CF90BF90AF909F90BC
:100C00008F900895BC0190E080E00C944A058FB16C
:100C10008095807F669B88601C9B846008958038E7
:100C20009105B8F460347105A0F420E191E061FD14
:100C300094E060FD990F62FD9295687F269FD00138
:100C40001124A80FA357BE4F8C9140FF03C0892BDE
:100C50008C93089590958923FBCF2F923F924F92CA
:100C60005F926F927F928F929F92AF92BF92CF923C
:100C7000DF92EF92FF920F931F93CF93DF93EC01DC
:100C80008B017A016901C61AD70AD7FE03C0D19435
:100C9000C194D10847018C1A9D0A97FE03C0919414
:100CA000819491088C149D0454F49E2D8F2D79010C
:100CB000292F382F9C2F8D2FE801092F182FEC1684
:100CC000FD0654F4902F812F8901292F382F9C2F56
:100CD0008D2FE701E92EF82E17012C1A3D0A290164
:100CE000401A510A57FE03C05194419451083101F2
:100CF00037FE03C08FEF681A780A759467948FEFF8
:100D0000021713070CF481E0A82E880FBB08EC161D
:100D1000FD06A4F041E0BE01C8018C149D0414F04E
:100D2000B801CE010E940F066418750877FE04C052
:100D30000A0D1B1D620C731C2196E9CFDF91CF9128
:100D40001F910F91FF90EF90DF90CF90BF90AF90E9
:100D50009F908F907F906F905F904F903F902F90DB
:100D600008952F923F924F925F926F927F928F924F
:100D70009F92AF92BF92CF92DF92EF92FF920F932A
:100D80001F93CF93DF93CDB7DEB72A970FB6F894B2
:100D9000DEBF0FBECDBF9A8389836A3061F5DC0167
:100DA00055968C91B8E08B9F90011124E981FA81CE
:100DB00081899289820F931F928B818B108A17866B
:100DC00081E090E02A960FB6F894DEBF0FBECDBF4B
:100DD000DF91CF911F910F91FF90EF90DF90CF9017
:100DE000BF90AF909F908F907F906F905F904F904B
:100DF0003F902F9008956D3019F329813A813A87F9
:100E00002987D9011F96AD90BC90B0E8AB16B1040C
:100E10000CF07BC0F901C188D288F0E4CF16D10470
:100E20000CF073C0D90155966C90559745E095012B
:100E3000649E200D311D1124121613060CF065C09E
:100E4000262C312C910153E0220F331F5A95E1F7E4
:100E50002C0D3D1D121613060CF057C05496BC9174
:100E6000BB83E985FA85F389FC83649FB001112473
:100E70009B0124553F4F3A832983712CE981FA81E4
:100E80008491F5E07F1201C080E0460138E0532EE6
:100E9000282F30E03E832D834C8080FF4B80411013
:100EA00004C03B818C813817E1F010E000E00615AA
:100EB000C0F4D501A00FB11FB887AF83F12CE12C8E
:100EC000E61460F4B701680D791D442D8F81988573
:100ED0000E940F06BFEFEB1AFB0AF2CF0F5F1F4F06
:100EE000E6CF8D819E81959587955A94820C931CAF
:100EF0005110CECF7394E981FA813196FA83E98358
:100F0000A20CB31CF6E07F12B9CFA985BA8555961D
:100F10002C915597422F50E01F968D919C91B6E0F1
:100F20002B9F800D911D1124E985FA85908B878771
:100F30002689222309F444CF6AEF64039001659F58
:100F4000300D112420583F4F281739070CF038CFA7
:100F5000DF010190F081E02D0190F081E02D6AE049
:100F6000CD0109952DCF0895089590E080E0089572
:100F70008F929F92AF92BF92EF92FF920F931F9327
:100F8000CF93DF937C0103E010E0F7018190919013
:100F9000A190B1907F01C0E4D0E0C4018170992795
:100FA000892B29F041E0B801CE010E940F06B694CA
:100FB000A794979487942196C036D10571F7F701CD
:100FC000E450FF4F80809180A280B380C401817083
:100FD0009927892B29F041E0B801CE010E940F0624
:100FE000B694A794979487942196C038D10571F749
:100FF0000F5F1F4F0334110541F6DF91CF911F9111
:101000000F91FF90EF90BF90AF909F908F900895B9
:1010100060327105CCF0405C5F4F440F551F440FA8
:10102000551F480F591F60527109FA018081918143
:10103000A281B38104C0B695A795979587956A95C7
:10104000D2F7817099270895440F551F440F551FFB
:10105000480F591FEACFCF92DF92EF92FF920F9382
:101060001F9300271127021B130B012E000C220BCC
:10107000330B440F551F440F551F6032710564F147
:10108000480F591FFA01F39580819181A281B381A4
:1010900060527109C12CD12C7601C39404C0CC0CD0
:1010A000DD1CEE1CFF1C6A95D2F7082719272A279A
:1010B0003B270C211D212E213F2180279127A2278C
:1010C000B32780839183A283B3831F910F91FF90F5
:1010D000EF90DF90CF900895FC01E40FF51FC080E2
:1010E000D180E280F3800C251D252E253F2581E04F
:1010F00090E0A0E0B0E004C0880F991FAA1FBB1FBA
:101100006A95D2F780239123A223B3238C019D01FA
:101110000C251D252E253F25008311832283338333
:10112000D4CF2F923F924F925F926F927F928F9285
:101130009F92AF92BF92CF92DF92EF92FF920F9366
:101140001F93CF93DF93CDB7DEB7CA50D2400FB60F
:10115000F894DEBF0FBECDBFE091FB07F091FC0716
:1011600082E092E0DE01119601900D920197E1F785
:1011700010E000E083E092E08C0F9D1F0696C75FB1
:10118000DD4F99838883C950D240F12CE12C86E051
:10119000E1E1F1E0DE01AD5FBD4F01900D928A9576
:1011A000E1F7A090FB07B090FC07FE01ED5FFD4F5B
:1011B0001F01D12CC12CF101619071901F01CE0152
:1011C0008D5F9D4F2C0143018E0C9F1CF20161919C
:1011D00071912F016115710519F46114710479F091
:1011E000600F711F6034710550F4F0E48F169104A4
:1011F00030F4A401C5010E940808C80ED91EC75FBB
:10120000DD4F88819981C950D24084159505F1F64A
:101210008215930581F6A701B801C5010E9408084F
:10122000892B51F092E0C91AD10821E0E2E0CE16F4
:10123000D10438F020E005C021E0F3E0CF16D1045E
:10124000C9F730E0A701B801CE0101960E942B0832
:101250008FEFE81AF80A90E4E916F10409F097CF45
:101260000F5F1F4F0034110509F08FCFA091FB07CE
:10127000B091FC0782E092E0FE01319601900D9260
:101280000197E1F7C65FDD4F0FB6F894DEBF0FBEE2
:10129000CDBFDF91CF911F910F91FF90EF90DF9025
:1012A000CF90BF90AF909F908F907F906F905F9006
:1012B0004F903F902F900895CF92DF92EF92FF9240
:1012C0000F931F93CF93DF938B016A01FC01E080A2
:1012D000F180C7010E940808EC01B8016150710952
:1012E000A601C7010E940808CC0FDD1FC770880F38
:1012F000991F880F991F8770C80FB8016F5F7F4FC4
:10130000A601C7010E94080887708C0FDF91CF915A
:101310001F910F91FF90EF90DF90CF900895FC0107
:1013200001900020E9F73197AF01481B590BBC0130
:101330008DED95E00C94F8040E94B7121F920F9265
:101340000FB60F9211248F939F938091E10090919B
:10135000E100937F9093E10083FF0FC01092E900BA
:1013600091E09093EB001092EC0092E39093ED00EB
:1013700010928C0198E09093F00082FF22C093E0DD
:101380009093E9009091F200992319F09AE39093D9
:10139000E80090917D01992341F090917D01915059
:1013A00090937D01911101C05D9A90918B019923D9
:1013B00041F090918B01915090938B01911101C05C
:1013C000289A84FF18C08091E2008E7E816080930D
:1013D000E2008091E1008F7E8093E10080917E01A8
:1013E0008E7E806180937E019F918F910F900FBEC2
:1013F0000F901F90189580FFF7CF8091E2008E7EAE
:1014000080618093E2008091E1008E7E8093E10014
:1014100080917E018E7E8160E5CF1F920F920FB684
:101420000F921124CF92DF92EF92FF920F931F93AE
:101430002F933F934F935F936F937F938F939F93DC
:10144000AF93BF93EF93FF93CF93DF93CDB7DEB707
:101450006C97DEBFCDBF1092E9008091E80083FF5A
:1014600025C068E0CE0145960E94EB0482EF809390
:10147000E8008D8987FF39C09091E80090FFFCCF8C
:10148000982F907609F034C19E894F89588D2F8905
:10149000F88C911131C0803861F580917C01809386
:1014A000F1001092F1008EEF8093E8006C960FB679
:1014B000F894DEBF0FBECDBFDF91CF91FF91EF91CA
:1014C000BF91AF919F918F917F916F915F914F915C
:1014D0003F912F911F910F91FF90EF90DF90CF9050
:1014E0000F900FBE0F901F9018959EEF9093E800FD
:1014F000C7CF1092F100D5CF913059F48111D3CFDD
:101500004130510581F680917C018D7F80937C0173
:10151000CACF933049F48111C6CF4130510519F635
:1015200080917C018260F2CF953041F48091E80097
:1015300080FFFCCF20682093E300B5CF963009F000
:10154000A9C00B8D1C8D22E01092E90010927A0147
:1015500010927901F2122EC0109278011092770148
:101560000E94BA041F8299E09983FA8291E09E83D7
:1015700090EA98879AEF99872091790130917A01C2
:10158000275F3F4F3C832B838D831092E90010929D
:101590007A0110927901109378010093770149E064
:1015A00050E0BE016F5F7F4F80E00E9494040E9474
:1015B000BA0479CF10937801009377010E949E03BB
:1015C000DC0112960D911C910115110509F451C110
:1015D000D801ED91FC910480F581E02DBE016B5E98
:1015E0007F4FC8010995009709F03EC1F8010085B9
:1015F0001185EACFF3E0FF120EC08F89882309F42A
:1016000040C0823061F440E867E08DE196E00E94DE
:101610006104811148CF81E28093EB0047CF813094
:1016200029F440E86BE081E196E0F1CF833099F74F
:101630000E949E03DC011296ED90FC908E010F5FDC
:101640001F4F6801E114F10479F0D701ED91FC918D
:101650000680F781E02DB801C7010995080F111D1B
:10166000F701E084F184EECFD8011C92F6010190DD
:101670000020E9F73197BF016C197D0940E0C601F0
:10168000C6CF6BEF75E0FB01449150E080E80E940B
:10169000940409CF973009F4BECF983021F481E04B
:1016A0008093F10000CF993009F0FDCE837009F0EE
:1016B000B2CFE8E1F1E081E031E096E3219122232D
:1016C00071F08093E9003093EB00DF0111972C91CA
:1016D0002093EC009093ED008F5F873079F78EE7D1
:1016E0008093EA001092EA008F8980938C01DBCE10
:1016F0008B8D9C8D1092E90010927A0110927901E5
:101700009093780180937701898D811192C08E89A1
:101710009D89913A49F4813209F07DCF47E050E04C
:1017200064E071E080E0B3CF913209F074CF83328E
:1017300069F48F89988DB0E0A0E0809300019093C8
:101740000101A0930201B0930301ADCE803269F490
:101750008091E80082FFFCCF67E084E091E00E9486
:10176000EB048BEF8093E8009ECE823209F09BCE93
:101770008F8980930B01EEEFFFE7859194918B3F6A
:101780009C4D51F1E0E0F8E0809104019091050159
:10179000A0910601B0910701803B9440A105B105DD
:1017A000F1F480910B0180FD1AC0EE3F8AE0F8074A
:1017B00089F587E797E79183808380916000809324
:1017C0007B0188E19BE00FB6F894A89580936000B8
:1017D0000FBE9093600067CEEEEFFAE0D5CF808128
:1017E00091818737974709F05ECEA8958091600078
:1017F00088618093600080917B0180936000EE3F60
:101800002AE0F20789F08091FE0A9091FF0A918305
:10181000808349CE808191818737980751F29093D8
:10182000FF0A8093FE0AC5CF1092FF0A1092FE0AAB
:101830003ACE0E949E03DC0112960D911C91011577
:10184000110509F4E8CED801ED91FC910190F081E9
:10185000E02DBE016B5E7F4FC8010995811123CE3B
:10186000F80100851185EBCF181619060CF41BCE74
:10187000D2CEF1E0FF12BECE6FEF75E004CF1F9223
:101880000F920FB60F9211242F933F938F939F9334
:10189000AF93BF938091730190917401A0917501F2
:1018A000B091760130916E0123E0230F2D3758F56A
:1018B0000196A11DB11D20936E0180937301909339
:1018C0007401A0937501B093760180916F0190919E
:1018D0007001A0917101B09172010196A11DB11D1D
:1018E00080936F0190937001A0937101B093720186
:1018F000BF91AF919F918F913F912F910F900FBE0C
:101900000F901F90189526E8230F0296A11DB11D78
:10191000D2CF4F925F926F927F92AF92BF92CF924F
:10192000DF92EF92FF920F931F93CF93DF938C017F
:10193000EC0123965C0182E1A80EB11C80E4C82E64
:10194000D12CE12CF12C93E0492E512C612C712CDF
:101950000E94EE11A70196010E944E1268830E9418
:10196000EE11A70196010E944E1269830E94EE11AA
:10197000A30192010E944E126F5F7F4F8F4F9F4FC6
:101980006A832396AC16BD0619F784EF95E0F8013B
:101990009183808385E08283DF91CF911F910F91A6
:1019A000FF90EF90DF90CF90BF90AF907F906F90BF
:1019B0005F904F9008950F931F93CF93DF93EDE8BF
:1019C000F5E01382128288EE93E0A0E0B0E0848319
:1019D0009583A683B78382E291E0918380838FEF22
:1019E0009FEF95878487EDEDF5E0138212821186D3
:1019F000128680E1838710861782158684E391E042
:101A00009183808382E491E095838483108A178692
:101A1000128A118A81E0838B148A858B168A80E072
:101A200091E004EF15E0D801FC011D923197E9F730
:101A3000E4EFF6E0DF019C011D9221503040E1F718
:101A400080E48093F40783E198E00E94890CC6EF5C
:101A5000D7E085E08A838B831C821E830D831887E1
:101A60000F830E94EE11EF81F8856083718382837A
:101A700093838CE091E09A87898781E098E0DF91F9
:101A8000CF911F910F910C94890CCF93DF93CDB719
:101A9000DEB7A1970FB6F894DEBF0FBECDBF789426
:101AA00084B5826084BD84B5816084BD85B5826063
:101AB00085BD85B5816085BD80916E008160809314
:101AC0006E0010928100809181008260809381007D
:101AD000809181008160809381008091800081608D
:101AE000809380008091910082608093910080912A
:101AF000910081608093910080919000816080933B
:101B000090008091C10084608093C1008091C100E9
:101B100082608093C1008091C10081608093C10088
:101B20008091C30081608093C3008091C000826077
:101B30008093C0008091C20081608093C200809138
:101B40007A00846080937A0080917A00826080932A
:101B50007A0080917A00816080937A0080917A0087
:101B6000806880937A0010928C0110927C01109210
:101B70007E018091D70081608093D70080EA8093B6
:101B8000D80089B5806189BD89B5826089BD09B4F5
:101B900000FEFDCF61E070E080E090E00E944A0529
:101BA0008091D8008F7C80618093D8008091E00084
:101BB000807F8093E0008091E1008E7E8093E10041
:101BC0008DE08093E200559A209A81EC80937C000E
:101BD00085B1806F85B984B1877E84B984B1876E01
:101BE00084B95E9A5F988AB1806D8AB9769A6E9848
:101BF00081B3806F81BB899880B38D7080BB80E595
:101C00008CBD81E08DBD85E090E00E9402065F9A68
:101C100085E090E00E9402065E985C98ECEAF5E0B0
:101C200089EB95E024912EBD00000DB407FEFDCF99
:101C300031968E179F07B1F75C9A81E88093640014
:101C40008091650081608093650081E28093E80562
:101C5000809164008E7F8093640080917A0080641C
:101C600080937A0080917A0086FDFCCF0091780005
:101C7000109179000E942505AB01BC01C801B0E0BC
:101C8000A0E0DC01992788278C019D01040F151F16
:101C9000261F371FC901B8012091640021602093DD
:101CA0006400611571058105910511F00E943D12D6
:101CB000EAE02E2E312C412C512C7FE3672E8FB77A
:101CC000F894409173015091740160917501709185
:101CD00076018FBF8091E905142F181B812F109179
:101CE000EA05112359F08093EB051092EA0580E094
:101CF00090E0892B21F30E940000DFCF9091E8054E
:101D0000891740F48F5F891790F781E083BF88952A
:101D100013BEEDCF81E08093EA054093E905809101
:101D2000E4059091E50501969093E5058093E4051F
:101D30008091E6058093E7050E9407068093E605FB
:101D4000EDE8F1E011111FEF0024119311931193AD
:101D500011930394D1F71092EF051092EE051092B3
:101D6000ED051092EC058091F6079091F70782300F
:101D7000910509F47EC148F4009709F4CEC001979B
:101D800009F46CC10E945303B2CF8330910509F46A
:101D9000F3C10497B9F70E94490384EF95E00E94CC
:101DA000B8076091F50770E08091F40790E0AC010E
:101DB0004D5F5F4F9B0101960E942D066091F507D4
:101DC00070E08091F40790E0AC01435051099B0111
:101DD00001970E942D066091F50770E08091F4074D
:101DE00090E09B012D5F3F4F6F5F7F4FAC010E94E2
:101DF0002D066091F50770E08091F40790E09B015B
:101E00002350310961507109AC010E942D060E94D6
:101E1000070686FF05C08091F4078F5F8093F40763
:101E20000E94070685FF05C08091F40781508093CA
:101E3000F4070E94070687FF05C08091F5078150CF
:101E40008093F5070E94070684FF05C08091F5077F
:101E50008F5F8093F50788E00E943E03882309F492
:101E600091CF8091F507E82FE350FF0B7F010091A0
:101E7000F4070054110BAF01B80184EF95E00E9404
:101E8000080821E030E0892B11F030E020E0A701C4
:101E9000B80184EF95E00E942B084091F50743506C
:101EA000550B6091F4076054770B84EF95E00E9426
:101EB00008086C01990FEE08FF08F7FEE9C16DE212
:101EC0008DED95E00E94B10622273327A9012C1938
:101ED0003D094E095F0919A28E010F5D1F4FCA010E
:101EE000B901A20191010E948012605DF801629324
:101EF0008F01211531054105510589F7011511059E
:101F000019F0C8010E948F0986E691E00E948F09AE
:101F100089E691E00E948F0935CF80E10E943E035F
:101F20001091FA07882309F47FC0165F1093FA070F
:101F30000091F90710E08091FA0790E058012FEF27
:101F4000A21AB20AA80EB91EE090F807F12C670198
:101F500031E0C31AD1084801880E991E01501109B9
:101F6000080F191F9401A701B801C6010E942D0690
:101F70009501A601B401C7010E942D069801A60192
:101F8000B501C6010E942D0688E090E09093ED0512
:101F90008093EC05E1E0F0E0F093EF05E093EE05CF
:101FA00084E491E00E948F0907E010E01093ED05B2
:101FB0000093EC058BE090E09093EF058093EE05A5
:101FC00089E491E00E948F091093ED050093EC05E0
:101FD00085E190E09093EF058093EE0582E591E036
:101FE0000E948F091093ED050093EC058FE190E0BE
:101FF0009093EF058093EE058FE591E00E948F09A5
:1020000088E00E943E03882309F4BCCE8091FA0741
:102010008A30D1F088F48111B5CE83E090E09093BE
:10202000F7078093F607AECE80E80E943E03882330
:1020300009F47ECF1A507ACF843149F08E3109F0FD
:10204000A1CE84E090E0EBCF82E090E0E8CF21E009
:1020500030E03093F7072093F60794CE0E944903AF
:102060000E9491088091FB079091FC070E94B8079D
:1020700089CE01E010E0580131E0A31AB108F12C3B
:10208000E12CC090FD07D090FE07A501B7018DEFB0
:1020900097E00E945C09E091FF07F0910008208121
:1020A00030E002C0359527958A95E2F721703327F5
:1020B000A801B701C6010E942B088FEFE81AF80AA1
:1020C00090E4E916F104E9F60F5F1F4F00341105A3
:1020D00091F60E944903E091FD07F091FE07DF01B0
:1020E000B395CF0184509F4F44815581668177819C
:1020F00041935193619371931082118212821382E2
:1021000014964D915D916D917C9117974D935D93D0
:102110006D937D931D921D921D921C9213978E17A5
:102120009F0711F710E000E0E090FD07F090FE0738
:102130004EE350E0B8018DEF97E00E945C09E0911A
:10214000FF07F0910008208130E002C03595279507
:102150008A95E2F7217033274FE350E0B801C701B9
:102160000E942B080F5F1F4F00341105E9F6809184
:10217000FD079091FE077ACF0E944903712C809051
:1021800001089090020880910308781608F07EC03C
:10219000A72CB12C6501CC0CDD1CC6018A0D9B1D42
:1021A000FC01EA50F84F7F01478550E085010F5F41
:1021B0001F4FF801EE0FFF1FE00FF11FEA50F84F1D
:1021C000638570E0C4010E940808F70190898823A4
:1021D000E9F09F5F9530B1F0908BF601EA0DFB1DA1
:1021E000EA50F84F80898130C1F5F801EE0FFF1FEA
:1021F000E00FF11FEA50F84F83858F5F803451F074
:10220000838709C021E0F701208BE7CF915024E0BC
:10221000D1F3E2CF6386F601EA0DFB1DEA50F84FD9
:10222000E784F12CF801EE0FFF1FE00FF11FEA50D9
:10223000F84F038510E0A701B801C4010E94080807
:1022400021E030E0892B11F030E020E0A701B80157
:10225000C4010E942B08739492CF823041F4878589
:102260008F5F803411F08787D6CF6786D4CF8330D5
:1022700051F4F801EE0FFF1FE00FF11FEA50F84F85
:1022800083858150BDCF87858150EDCFC401EECECF
:10229000A701960119A28E010F5D1F4FCA01B90156
:1022A000A20191010E948012605DF80162938F018A
:1022B000211531054105510589F720CE0F931F9354
:1022C000CF93DF938C0181E090E00E94461280FF63
:1022D00031C08AE090E00E9446129FEF980F9E3F27
:1022E00048F522E330E0D80150963C932E931F9797
:1022F00028E330E052963C932E935197CBE0D0E008
:10230000D801ED91FC910190F081E02D682FC8017A
:102310000995CE010E9446122196C131D10581F75F
:102320000E94530388EE93E0DF91CF911F910F91AC
:102330000C940206DF91CF911F910F91089504979D
:102340000C945E118F929F92AF92BF92CF92DF92C8
:10235000EF92FF92CF93DF93EC01688179818A81BC
:102360009B81611571058105910521F464E279ED88
:102370008BE597E02DE133EF41E050E00E944E12F3
:1023800049015A019B01AC01A7EAB1E40E946D1218
:102390006B017C01ACEEB4EFA50194010E947B12AD
:1023A000C60ED71EE81EF91EF7FE06C081E0C81A49
:1023B000D108E10880E8F80AC882D982EA82FB8263
:1023C000C701B6019F77DF91CF91FF90EF90DF902B
:1023D000CF90BF90AF909F908F9008958F929F92D3
:1023E000AF92BF92CF92DF92EF92FF9260910D0178
:1023F00070910E0180910F0190911001611571058E
:102400008105910521F464E279ED8BE597E02DE1FA
:1024100033EF41E050E00E944E1249015A019B0106
:10242000AC01A7EAB1E40E946D126B017C01ACEE35
:10243000B4EFA50194010E947B12C60ED71EE81EC0
:10244000F91EF7FE06C081E0C81AD108E10880E84D
:10245000F80AC0920D01D0920E01E0920F01F092A5
:102460001001C701B6019F77FF90EF90DF90CF90EA
:10247000BF90AF909F908F90089560930D017093DF
:102480000E0180930F01909310010895F999FECFEA
:1024900092BD81BDF89A992780B50895052E97FBC6
:1024A0001EF400940E94651257FD07D00E9480120E
:1024B00007FC03D04EF40C9465125095409530956E
:1024C00021953F4F4F4F5F4F0895909580957095A0
:1024D00061957F4F8F4F9F4F08950E94A212A59F35
:1024E000900DB49F900DA49F800D911D112408950F
:1024F000B7FF0C946D120E946D12821B930B08950E
:10250000A1E21A2EAA1BBB1BFD010DC0AA1FBB1FF7
:10251000EE1FFF1FA217B307E407F50720F0A21B69
:10252000B30BE40BF50B661F771F881F991F1A94D6
:1025300069F760957095809590959B01AC01BD0100
:10254000CF010895A29FB001B39FC001A39F700D5A
:10255000811D1124911DB29F700D811D1124911DAB
:102560000895EE0FFF1F0590F491E02D099481E08E
:0C25700090E0F8940C94BC12F894FFCF9B
:10257C00FFFFFFFF00E10000000000001E01000053
:10258C0000FFFF0000010000C1808100000000007E
:10259C000000B2037D05D303C8031904D703F50368
:1025AC0000000000B106F804B507B4075E11FCFF8B
:1025BC0000009F11416E74730043656C6C756C6107
:1025CC00720047616D65206F66204C69666500631B
:0E25DC007572736F72000D0A0064697800005A
:00000001FF
